:100000000C942A000C943F000C943F000C943F0089
:100010000C943F000C943F000C943F000C943F0064
:100020000C943F000C943F000C943F000C943F0054
:100030000C943F000C943F000C943F000C943F0044
:100040000C943F000C943F000C943F000C943F0034
:100050000C943F0011241FBECFE5D8E0DEBFCDBF1A
:1000600010E0A0E6B0E0EAE9F1E002C005900D92F0
:10007000A636B107D9F70E94AC000C94CB000C94C3
:100080000000C39A82E08A95F1F700C0C3988FE61A
:1000900097E10197F1F700C000000895CF93C82FB2
:1000A000882314F4DF9A01C0DF98C6FF02C0DE9AED
:1000B00001C0DE98C5FF02C0DD9A01C0DD98C4FF13
:1000C00002C0DC9A01C0DC980E944100C3FF02C05C
:1000D000DF9A01C0DF98C2FF02C0DE9A01C0DE983D
:1000E000C1FF02C0DD9A01C0DD98C0FF02C0DC9AEA
:1000F00001C0DC980E944100CF910895C198C29838
:100100000E944E0008958FE295E70197F1F700C035
:100110000000B99ABA9ABB9AD79AD69AD59AD49A25
:1001200083E30E947E0082E30E947E0088E20E94B8
:100130007E008CE00E947E0081E00E947E00089597
:10014000BE9A87B38F7487BB80E48DB908958FB949
:10015000779BFECF8FB10895CF93DF9300D000D06F
:1001600000D0CDB7DEB70E9483000E94A00086E0D9
:10017000E0E6F0E0DE01119601900D928A95E1F73C
:10018000E1E0F0E0EC0FFD1FE10FF11D80810E9426
:0A019000A700182FF5CFF894FFCF59
:06019A003132333435362A
:00000001FF
